{
  "_format": "hh-sol-artifact-1",
  "contractName": "TrinnodeFactory",
  "sourceName": "contracts/ERC20Factory.sol",
  "abi": [
    {
      "inputs": [
        {
          "internalType": "string",
          "name": "_name",
          "type": "string"
        },
        {
          "internalType": "string",
          "name": "_symbol",
          "type": "string"
        },
        {
          "internalType": "uint8",
          "name": "_decimals",
          "type": "uint8"
        },
        {
          "internalType": "uint256",
          "name": "_initialSupply",
          "type": "uint256"
        },
        {
          "internalType": "uint256",
          "name": "_maxSupply",
          "type": "uint256"
        }
      ],
      "name": "createToken",
      "outputs": [
        {
          "internalType": "address",
          "name": "",
          "type": "address"
        }
      ],
      "stateMutability": "nonpayable",
      "type": "function"
    },
    {
      "inputs": [],
      "name": "getAllTokens",
      "outputs": [
        {
          "internalType": "address[]",
          "name": "",
          "type": "address[]"
        }
      ],
      "stateMutability": "view",
      "type": "function"
    },
    {
      "inputs": [
        {
          "internalType": "uint256",
          "name": "",
          "type": "uint256"
        }
      ],
      "name": "tokens",
      "outputs": [
        {
          "internalType": "address",
          "name": "",
          "type": "address"
        }
      ],
      "stateMutability": "view",
      "type": "function"
    }
  ],
  "bytecode": "0x6080604052348015600f57600080fd5b506124498061001f6000396000f3fe608060405234801561001057600080fd5b50600436106100415760003560e01c80631ae5be6f146100465780632a5c792a146100765780634f64b2be14610094575b600080fd5b610060600480360381019061005b9190610478565b6100c4565b60405161006d919061056c565b60405180910390f35b61007e6101d5565b60405161008b9190610645565b60405180910390f35b6100ae60048036038101906100a99190610667565b610263565b6040516100bb919061056c565b60405180910390f35b6000806040516100d3906102a2565b604051809103906000f0801580156100ef573d6000803e3d6000fd5b5090508073ffffffffffffffffffffffffffffffffffffffff16631f7fd43088888888886040518663ffffffff1660e01b8152600401610133959493929190610731565b600060405180830381600087803b15801561014d57600080fd5b505af1158015610161573d6000803e3d6000fd5b505050506000819080600181540180825580915050600190039060005260206000200160009091909190916101000a81548173ffffffffffffffffffffffffffffffffffffffff021916908373ffffffffffffffffffffffffffffffffffffffff1602179055508091505095945050505050565b6060600080548060200260200160405190810160405280929190818152602001828054801561025957602002820191906000526020600020905b8160009054906101000a900473ffffffffffffffffffffffffffffffffffffffff1673ffffffffffffffffffffffffffffffffffffffff168152602001906001019080831161020f575b5050505050905090565b6000818154811061027357600080fd5b906000526020600020016000915054906101000a900473ffffffffffffffffffffffffffffffffffffffff1681565b611c818061079383390190565b6000604051905090565b600080fd5b600080fd5b600080fd5b600080fd5b6000601f19601f8301169050919050565b7f4e487b7100000000000000000000000000000000000000000000000000000000600052604160045260246000fd5b610316826102cd565b810181811067ffffffffffffffff82111715610335576103346102de565b5b80604052505050565b60006103486102af565b9050610354828261030d565b919050565b600067ffffffffffffffff821115610374576103736102de565b5b61037d826102cd565b9050602081019050919050565b82818337600083830152505050565b60006103ac6103a784610359565b61033e565b9050828152602081018484840111156103c8576103c76102c8565b5b6103d384828561038a565b509392505050565b600082601f8301126103f0576103ef6102c3565b5b8135610400848260208601610399565b91505092915050565b600060ff82169050919050565b61041f81610409565b811461042a57600080fd5b50565b60008135905061043c81610416565b92915050565b6000819050919050565b61045581610442565b811461046057600080fd5b50565b6000813590506104728161044c565b92915050565b600080600080600060a08688031215610494576104936102b9565b5b600086013567ffffffffffffffff8111156104b2576104b16102be565b5b6104be888289016103db565b955050602086013567ffffffffffffffff8111156104df576104de6102be565b5b6104eb888289016103db565b94505060406104fc8882890161042d565b935050606061050d88828901610463565b925050608061051e88828901610463565b9150509295509295909350565b600073ffffffffffffffffffffffffffffffffffffffff82169050919050565b60006105568261052b565b9050919050565b6105668161054b565b82525050565b6000602082019050610581600083018461055d565b92915050565b600081519050919050565b600082825260208201905092915050565b6000819050602082019050919050565b6105bc8161054b565b82525050565b60006105ce83836105b3565b60208301905092915050565b6000602082019050919050565b60006105f282610587565b6105fc8185610592565b9350610607836105a3565b8060005b8381101561063857815161061f88826105c2565b975061062a836105da565b92505060018101905061060b565b5085935050505092915050565b6000602082019050818103600083015261065f81846105e7565b905092915050565b60006020828403121561067d5761067c6102b9565b5b600061068b84828501610463565b91505092915050565b600081519050919050565b600082825260208201905092915050565b60005b838110156106ce5780820151818401526020810190506106b3565b60008484015250505050565b60006106e582610694565b6106ef818561069f565b93506106ff8185602086016106b0565b610708816102cd565b840191505092915050565b61071c81610409565b82525050565b61072b81610442565b82525050565b600060a082019050818103600083015261074b81886106da565b9050818103602083015261075f81876106da565b905061076e6040830186610713565b61077b6060830185610722565b6107886080830184610722565b969550505050505056fe6080604052348015600f57600080fd5b5033600560006101000a81548173ffffffffffffffffffffffffffffffffffffffff021916908373ffffffffffffffffffffffffffffffffffffffff160217905550611c21806100606000396000f3fe608060405234801561001057600080fd5b50600436106100ea5760003560e01c806340c10f191161008c5780638da5cb5b116100665780638da5cb5b1461025e57806395d89b411461027c578063a9059cbb1461029a578063dd62ed3e146102ca576100ea565b806340c10f19146101f657806342966c681461021257806370a082311461022e576100ea565b80631f7fd430116100c85780631f7fd4301461015b57806323b872dd146101775780632521e0bc146101a7578063313ce567146101d8576100ea565b806306fdde03146100ef578063095ea7b31461010d57806318160ddd1461013d575b600080fd5b6100f76102fa565b6040516101049190611381565b60405180910390f35b6101276004803603810190610122919061144b565b610388565b60405161013491906114a6565b60405180910390f35b61014561047a565b60405161015291906114d0565b60405180910390f35b61017560048036038101906101709190611659565b610480565b005b610191600480360381019061018c919061170c565b610767565b60405161019e91906114a6565b60405180910390f35b6101c160048036038101906101bc919061175f565b610b16565b6040516101cf92919061178c565b60405180910390f35b6101e0610b47565b6040516101ed91906117c4565b60405180910390f35b610210600480360381019061020b919061144b565b610b5a565b005b61022c600480360381019061022791906117df565b610dd2565b005b6102486004803603810190610243919061175f565b610ebd565b60405161025591906114d0565b60405180910390f35b610266610ed5565b604051610273919061181b565b60405180910390f35b610284610efb565b6040516102919190611381565b60405180910390f35b6102b460048036038101906102af919061144b565b610f89565b6040516102c191906114a6565b60405180910390f35b6102e460048036038101906102df9190611836565b6112cc565b6040516102f191906114d0565b60405180910390f35b60008054610307906118a5565b80601f0160208091040260200160405190810160405280929190818152602001828054610333906118a5565b80156103805780601f1061035557610100808354040283529160200191610380565b820191906000526020600020905b81548152906001019060200180831161036357829003601f168201915b505050505081565b60008073ffffffffffffffffffffffffffffffffffffffff168373ffffffffffffffffffffffffffffffffffffffff16036103ef576040517f5963709b00000000000000000000000000000000000000000000000000000000815260040160405180910390fd5b81600760003373ffffffffffffffffffffffffffffffffffffffff1673ffffffffffffffffffffffffffffffffffffffff16815260200190815260200160002060008573ffffffffffffffffffffffffffffffffffffffff1673ffffffffffffffffffffffffffffffffffffffff168152602001908152602001600020819055506001905092915050565b60035481565b600560009054906101000a900473ffffffffffffffffffffffffffffffffffffffff1673ffffffffffffffffffffffffffffffffffffffff163373ffffffffffffffffffffffffffffffffffffffff1614610507576040517f075fd2b100000000000000000000000000000000000000000000000000000000815260040160405180910390fd5b600560149054906101000a900460ff161561054e576040517f439a74c900000000000000000000000000000000000000000000000000000000815260040160405180910390fd5b80821115610588576040517f9e440ae300000000000000000000000000000000000000000000000000000000815260040160405180910390fd5b60008214806105975750600081145b156105ce576040517ff6fa545000000000000000000000000000000000000000000000000000000000815260040160405180910390fd5b600073ffffffffffffffffffffffffffffffffffffffff163373ffffffffffffffffffffffffffffffffffffffff1603610634576040517f5963709b00000000000000000000000000000000000000000000000000000000815260040160405180910390fd5b84600090816106439190611a82565b5083600190816106539190611a82565b5082600260006101000a81548160ff021916908360ff160217905550806004819055508160038190555081600660003373ffffffffffffffffffffffffffffffffffffffff1673ffffffffffffffffffffffffffffffffffffffff16815260200190815260200160002081905550604051806040016040528060001515815260200142815250600860003373ffffffffffffffffffffffffffffffffffffffff1673ffffffffffffffffffffffffffffffffffffffff16815260200190815260200160002060008201518160000160006101000a81548160ff021916908315150217905550602082015181600101559050506001600560146101000a81548160ff0219169083151502179055505050505050565b60008073ffffffffffffffffffffffffffffffffffffffff168373ffffffffffffffffffffffffffffffffffffffff16036107ce576040517f5963709b00000000000000000000000000000000000000000000000000000000815260040160405180910390fd5b81600660008673ffffffffffffffffffffffffffffffffffffffff1673ffffffffffffffffffffffffffffffffffffffff168152602001908152602001600020541015610847576040517f50b1f35600000000000000000000000000000000000000000000000000000000815260040160405180910390fd5b81600760008673ffffffffffffffffffffffffffffffffffffffff1673ffffffffffffffffffffffffffffffffffffffff16815260200190815260200160002060003373ffffffffffffffffffffffffffffffffffffffff1673ffffffffffffffffffffffffffffffffffffffff1681526020019081526020016000205410156108fd576040517f0fd3919300000000000000000000000000000000000000000000000000000000815260040160405180910390fd5b81600760008673ffffffffffffffffffffffffffffffffffffffff1673ffffffffffffffffffffffffffffffffffffffff16815260200190815260200160002060003373ffffffffffffffffffffffffffffffffffffffff1673ffffffffffffffffffffffffffffffffffffffff16815260200190815260200160002060008282546109899190611b83565b9250508190555081600660008673ffffffffffffffffffffffffffffffffffffffff1673ffffffffffffffffffffffffffffffffffffffff16815260200190815260200160002060008282546109df9190611b83565b9250508190555081600660008573ffffffffffffffffffffffffffffffffffffffff1673ffffffffffffffffffffffffffffffffffffffff1681526020019081526020016000206000828254610a359190611bb7565b925050819055506000600860008573ffffffffffffffffffffffffffffffffffffffff1673ffffffffffffffffffffffffffffffffffffffff1681526020019081526020016000206001015403610b0b57604051806040016040528060001515815260200142815250600860008573ffffffffffffffffffffffffffffffffffffffff1673ffffffffffffffffffffffffffffffffffffffff16815260200190815260200160002060008201518160000160006101000a81548160ff021916908315150217905550602082015181600101559050505b600190509392505050565b60086020528060005260406000206000915090508060000160009054906101000a900460ff16908060010154905082565b600260009054906101000a900460ff1681565b600560009054906101000a900473ffffffffffffffffffffffffffffffffffffffff1673ffffffffffffffffffffffffffffffffffffffff163373ffffffffffffffffffffffffffffffffffffffff1614610be1576040517f075fd2b100000000000000000000000000000000000000000000000000000000815260040160405180910390fd5b600073ffffffffffffffffffffffffffffffffffffffff168273ffffffffffffffffffffffffffffffffffffffff1603610c47576040517f5963709b00000000000000000000000000000000000000000000000000000000815260040160405180910390fd5b60045481600354610c589190611bb7565b1115610c90576040517f9e440ae300000000000000000000000000000000000000000000000000000000815260040160405180910390fd5b80600660008473ffffffffffffffffffffffffffffffffffffffff1673ffffffffffffffffffffffffffffffffffffffff1681526020019081526020016000206000828254610cdf9190611bb7565b925050819055508060036000828254610cf89190611bb7565b925050819055506000600860008473ffffffffffffffffffffffffffffffffffffffff1673ffffffffffffffffffffffffffffffffffffffff1681526020019081526020016000206001015403610dce57604051806040016040528060001515815260200142815250600860008473ffffffffffffffffffffffffffffffffffffffff1673ffffffffffffffffffffffffffffffffffffffff16815260200190815260200160002060008201518160000160006101000a81548160ff021916908315150217905550602082015181600101559050505b5050565b80600660003373ffffffffffffffffffffffffffffffffffffffff1673ffffffffffffffffffffffffffffffffffffffff168152602001908152602001600020541015610e4b576040517f50b1f35600000000000000000000000000000000000000000000000000000000815260040160405180910390fd5b80600660003373ffffffffffffffffffffffffffffffffffffffff1673ffffffffffffffffffffffffffffffffffffffff1681526020019081526020016000206000828254610e9a9190611b83565b925050819055508060036000828254610eb39190611b83565b9250508190555050565b60066020528060005260406000206000915090505481565b600560009054906101000a900473ffffffffffffffffffffffffffffffffffffffff1681565b60018054610f08906118a5565b80601f0160208091040260200160405190810160405280929190818152602001828054610f34906118a5565b8015610f815780601f10610f5657610100808354040283529160200191610f81565b820191906000526020600020905b815481529060010190602001808311610f6457829003601f168201915b505050505081565b60008073ffffffffffffffffffffffffffffffffffffffff168373ffffffffffffffffffffffffffffffffffffffff1603610ff0576040517f5963709b00000000000000000000000000000000000000000000000000000000815260040160405180910390fd5b81600660003373ffffffffffffffffffffffffffffffffffffffff1673ffffffffffffffffffffffffffffffffffffffff168152602001908152602001600020541015611069576040517f50b1f35600000000000000000000000000000000000000000000000000000000815260040160405180910390fd5b600860003373ffffffffffffffffffffffffffffffffffffffff1673ffffffffffffffffffffffffffffffffffffffff16815260200190815260200160002060000160009054906101000a900460ff16806111105750600860008473ffffffffffffffffffffffffffffffffffffffff1673ffffffffffffffffffffffffffffffffffffffff16815260200190815260200160002060000160009054906101000a900460ff165b15611147576040517f075fd2b100000000000000000000000000000000000000000000000000000000815260040160405180910390fd5b81600660003373ffffffffffffffffffffffffffffffffffffffff1673ffffffffffffffffffffffffffffffffffffffff16815260200190815260200160002060008282546111969190611b83565b9250508190555081600660008573ffffffffffffffffffffffffffffffffffffffff1673ffffffffffffffffffffffffffffffffffffffff16815260200190815260200160002060008282546111ec9190611bb7565b925050819055506000600860008573ffffffffffffffffffffffffffffffffffffffff1673ffffffffffffffffffffffffffffffffffffffff16815260200190815260200160002060010154036112c257604051806040016040528060001515815260200142815250600860008573ffffffffffffffffffffffffffffffffffffffff1673ffffffffffffffffffffffffffffffffffffffff16815260200190815260200160002060008201518160000160006101000a81548160ff021916908315150217905550602082015181600101559050505b6001905092915050565b6007602052816000526040600020602052806000526040600020600091509150505481565b600081519050919050565b600082825260208201905092915050565b60005b8381101561132b578082015181840152602081019050611310565b60008484015250505050565b6000601f19601f8301169050919050565b6000611353826112f1565b61135d81856112fc565b935061136d81856020860161130d565b61137681611337565b840191505092915050565b6000602082019050818103600083015261139b8184611348565b905092915050565b6000604051905090565b600080fd5b600080fd5b600073ffffffffffffffffffffffffffffffffffffffff82169050919050565b60006113e2826113b7565b9050919050565b6113f2816113d7565b81146113fd57600080fd5b50565b60008135905061140f816113e9565b92915050565b6000819050919050565b61142881611415565b811461143357600080fd5b50565b6000813590506114458161141f565b92915050565b60008060408385031215611462576114616113ad565b5b600061147085828601611400565b925050602061148185828601611436565b9150509250929050565b60008115159050919050565b6114a08161148b565b82525050565b60006020820190506114bb6000830184611497565b92915050565b6114ca81611415565b82525050565b60006020820190506114e560008301846114c1565b92915050565b600080fd5b600080fd5b7f4e487b7100000000000000000000000000000000000000000000000000000000600052604160045260246000fd5b61152d82611337565b810181811067ffffffffffffffff8211171561154c5761154b6114f5565b5b80604052505050565b600061155f6113a3565b905061156b8282611524565b919050565b600067ffffffffffffffff82111561158b5761158a6114f5565b5b61159482611337565b9050602081019050919050565b82818337600083830152505050565b60006115c36115be84611570565b611555565b9050828152602081018484840111156115df576115de6114f0565b5b6115ea8482856115a1565b509392505050565b600082601f830112611607576116066114eb565b5b81356116178482602086016115b0565b91505092915050565b600060ff82169050919050565b61163681611620565b811461164157600080fd5b50565b6000813590506116538161162d565b92915050565b600080600080600060a08688031215611675576116746113ad565b5b600086013567ffffffffffffffff811115611693576116926113b2565b5b61169f888289016115f2565b955050602086013567ffffffffffffffff8111156116c0576116bf6113b2565b5b6116cc888289016115f2565b94505060406116dd88828901611644565b93505060606116ee88828901611436565b92505060806116ff88828901611436565b9150509295509295909350565b600080600060608486031215611725576117246113ad565b5b600061173386828701611400565b935050602061174486828701611400565b925050604061175586828701611436565b9150509250925092565b600060208284031215611775576117746113ad565b5b600061178384828501611400565b91505092915050565b60006040820190506117a16000830185611497565b6117ae60208301846114c1565b9392505050565b6117be81611620565b82525050565b60006020820190506117d960008301846117b5565b92915050565b6000602082840312156117f5576117f46113ad565b5b600061180384828501611436565b91505092915050565b611815816113d7565b82525050565b6000602082019050611830600083018461180c565b92915050565b6000806040838503121561184d5761184c6113ad565b5b600061185b85828601611400565b925050602061186c85828601611400565b9150509250929050565b7f4e487b7100000000000000000000000000000000000000000000000000000000600052602260045260246000fd5b600060028204905060018216806118bd57607f821691505b6020821081036118d0576118cf611876565b5b50919050565b60008190508160005260206000209050919050565b60006020601f8301049050919050565b600082821b905092915050565b6000600883026119387fffffffffffffffffffffffffffffffffffffffffffffffffffffffffffffffff826118fb565b61194286836118fb565b95508019841693508086168417925050509392505050565b6000819050919050565b600061197f61197a61197584611415565b61195a565b611415565b9050919050565b6000819050919050565b61199983611964565b6119ad6119a582611986565b848454611908565b825550505050565b600090565b6119c26119b5565b6119cd818484611990565b505050565b5b818110156119f1576119e66000826119ba565b6001810190506119d3565b5050565b601f821115611a3657611a07816118d6565b611a10846118eb565b81016020851015611a1f578190505b611a33611a2b856118eb565b8301826119d2565b50505b505050565b600082821c905092915050565b6000611a5960001984600802611a3b565b1980831691505092915050565b6000611a728383611a48565b9150826002028217905092915050565b611a8b826112f1565b67ffffffffffffffff811115611aa457611aa36114f5565b5b611aae82546118a5565b611ab98282856119f5565b600060209050601f831160018114611aec5760008415611ada578287015190505b611ae48582611a66565b865550611b4c565b601f198416611afa866118d6565b60005b82811015611b2257848901518255600182019150602085019450602081019050611afd565b86831015611b3f5784890151611b3b601f891682611a48565b8355505b6001600288020188555050505b505050505050565b7f4e487b7100000000000000000000000000000000000000000000000000000000600052601160045260246000fd5b6000611b8e82611415565b9150611b9983611415565b9250828203905081811115611bb157611bb0611b54565b5b92915050565b6000611bc282611415565b9150611bcd83611415565b9250828201905080821115611be557611be4611b54565b5b9291505056fea26469706673582212205241a2904c2584b2dfa1f6d23d49d0ff2f0d2e041306ce8d4b8c1bc2738c6d1764736f6c634300081e0033a264697066735822122042e75b4cbee6d4e5a8d4c2858c2d7450823cee95968ffad166bddf344604a3c964736f6c634300081e0033",
  "linkReferences": {},
  "deployedLinkReferences": {}
}