{
  "_format": "hh-sol-artifact-1",
  "contractName": "SchoolManagementStaffFactory",
  "sourceName": "contracts/EmployeeFACTORY.sol",
  "abi": [
    {
      "inputs": [],
      "name": "createStaffContract",
      "outputs": [
        {
          "internalType": "address",
          "name": "",
          "type": "address"
        }
      ],
      "stateMutability": "nonpayable",
      "type": "function"
    },
    {
      "inputs": [],
      "name": "getAllStaffContracts",
      "outputs": [
        {
          "internalType": "address[]",
          "name": "",
          "type": "address[]"
        }
      ],
      "stateMutability": "view",
      "type": "function"
    },
    {
      "inputs": [
        {
          "internalType": "uint256",
          "name": "",
          "type": "uint256"
        }
      ],
      "name": "staffContracts",
      "outputs": [
        {
          "internalType": "address",
          "name": "",
          "type": "address"
        }
      ],
      "stateMutability": "view",
      "type": "function"
    }
  ],
  "bytecode": "0x6080604052348015600f57600080fd5b50611e708061001f6000396000f3fe608060405234801561001057600080fd5b50600436106100415760003560e01c8063490fd1a61461004657806358da24ea146100645780637a641d2314610094575b600080fd5b61004e6100b2565b60405161005b9190610314565b60405180910390f35b61007e60048036038101906100799190610371565b610140565b60405161008b91906103ad565b60405180910390f35b61009c61017f565b6040516100a991906103ad565b60405180910390f35b6060600080548060200260200160405190810160405280929190818152602001828054801561013657602002820191906000526020600020905b8160009054906101000a900473ffffffffffffffffffffffffffffffffffffffff1673ffffffffffffffffffffffffffffffffffffffff16815260200190600101908083116100ec575b5050505050905090565b6000818154811061015057600080fd5b906000526020600020016000915054906101000a900473ffffffffffffffffffffffffffffffffffffffff1681565b60008060405161018e90610217565b604051809103906000f0801580156101aa573d6000803e3d6000fd5b5090506000819080600181540180825580915050600190039060005260206000200160009091909190916101000a81548173ffffffffffffffffffffffffffffffffffffffff021916908373ffffffffffffffffffffffffffffffffffffffff1602179055508091505090565b611a72806103c983390190565b600081519050919050565b600082825260208201905092915050565b6000819050602082019050919050565b600073ffffffffffffffffffffffffffffffffffffffff82169050919050565b600061027b82610250565b9050919050565b61028b81610270565b82525050565b600061029d8383610282565b60208301905092915050565b6000602082019050919050565b60006102c182610224565b6102cb818561022f565b93506102d683610240565b8060005b838110156103075781516102ee8882610291565b97506102f9836102a9565b9250506001810190506102da565b5085935050505092915050565b6000602082019050818103600083015261032e81846102b6565b905092915050565b600080fd5b6000819050919050565b61034e8161033b565b811461035957600080fd5b50565b60008135905061036b81610345565b92915050565b60006020828403121561038757610386610336565b5b60006103958482850161035c565b91505092915050565b6103a781610270565b82525050565b60006020820190506103c2600083018461039e565b9291505056fe6080604052348015600f57600080fd5b50336000806101000a81548173ffffffffffffffffffffffffffffffffffffffff021916908373ffffffffffffffffffffffffffffffffffffffff160217905550611a138061005f6000396000f3fe6080604052600436106100955760003560e01c80639cae85ac116100595780639cae85ac14610180578063b60d4288146101c0578063b7301059146101ca578063cddc9f26146101f5578063f7cecdac1461023257610096565b8063037c73c2146100985780630ca2a400146100c657806321858937146100ef57806337b301ad146101185780635bdbb24a1461015757610096565b5b005b3480156100a457600080fd5b506100ad61026f565b6040516100bd94939291906114b2565b60405180910390f35b3480156100d257600080fd5b506100ed60048036038101906100e89190611582565b610617565b005b3480156100fb57600080fd5b50610116600480360381019061011191906115ee565b6108bc565b005b34801561012457600080fd5b5061013f600480360381019061013a919061162e565b610a9c565b60405161014e93929190611688565b60405180910390f35b34801561016357600080fd5b5061017e600480360381019061017991906116bf565b610c2d565b005b34801561018c57600080fd5b506101a760048036038101906101a2919061162e565b610f60565b6040516101b7949392919061172d565b60405180910390f35b6101c8610fb7565b005b3480156101d657600080fd5b506101df610fb9565b6040516101ec9190611781565b60405180910390f35b34801561020157600080fd5b5061021c6004803603810190610217919061179c565b610fdd565b6040516102299190611781565b60405180910390f35b34801561023e57600080fd5b506102596004803603810190610254919061162e565b61101c565b60405161026691906117c9565b60405180910390f35b6060806060806000600180549050905060008167ffffffffffffffff81111561029b5761029a6117e4565b5b6040519080825280602002602001820160405280156102c95781602001602082028036833780820191505090505b50905060008267ffffffffffffffff8111156102e8576102e76117e4565b5b6040519080825280602002602001820160405280156103165781602001602082028036833780820191505090505b50905060008367ffffffffffffffff811115610335576103346117e4565b5b6040519080825280602002602001820160405280156103635781602001602082028036833780820191505090505b50905060008467ffffffffffffffff811115610382576103816117e4565b5b6040519080825280602002602001820160405280156103b05781602001602082028036833780820191505090505b50905060005b858110156105ff576000600182815481106103d4576103d3611813565b5b9060005260206000200160009054906101000a900473ffffffffffffffffffffffffffffffffffffffff1690506000600260008373ffffffffffffffffffffffffffffffffffffffff1673ffffffffffffffffffffffffffffffffffffffff168152602001908152602001600020604051806080016040529081600082015481526020016001820160009054906101000a900460ff16600281111561047c5761047b6112d2565b5b600281111561048e5761048d6112d2565b5b81526020016001820160019054906101000a900460ff1660028111156104b7576104b66112d2565b5b60028111156104c9576104c86112d2565b5b81526020016001820160029054906101000a900460ff1615151515815250509050818784815181106104fe576104fd611813565b5b602002602001019073ffffffffffffffffffffffffffffffffffffffff16908173ffffffffffffffffffffffffffffffffffffffff168152505080600001518684815181106105505761054f611813565b5b602002602001018181525050806020015185848151811061057457610573611813565b5b6020026020010190600281111561058e5761058d6112d2565b5b908160028111156105a2576105a16112d2565b5b8152505080604001518484815181106105be576105bd611813565b5b602002602001019060028111156105d8576105d76112d2565b5b908160028111156105ec576105eb6112d2565b5b81525050505080806001019150506103b6565b50838383839850985098509850505050505090919293565b60008054906101000a900473ffffffffffffffffffffffffffffffffffffffff1673ffffffffffffffffffffffffffffffffffffffff163373ffffffffffffffffffffffffffffffffffffffff161461069c576040517fcc731cf200000000000000000000000000000000000000000000000000000000815260040160405180910390fd5b600260008373ffffffffffffffffffffffffffffffffffffffff1673ffffffffffffffffffffffffffffffffffffffff16815260200190815260200160002060010160029054906101000a900460ff16610722576040517f60f4985300000000000000000000000000000000000000000000000000000000815260040160405180910390fd5b60006002811115610736576107356112d2565b5b600260008473ffffffffffffffffffffffffffffffffffffffff1673ffffffffffffffffffffffffffffffffffffffff16815260200190815260200160002060010160009054906101000a900460ff166002811115610798576107976112d2565b5b146107cf576040517fac924be200000000000000000000000000000000000000000000000000000000815260040160405180910390fd5b60008114806107dd57508047105b15610814576040517f3f4ab80e00000000000000000000000000000000000000000000000000000000815260040160405180910390fd5b60008273ffffffffffffffffffffffffffffffffffffffff168260405161083a90611873565b60006040518083038185875af1925050503d8060008114610877576040519150601f19603f3d011682016040523d82523d6000602084013e61087c565b606091505b50509050806108b7576040517f3f4ab80e00000000000000000000000000000000000000000000000000000000815260040160405180910390fd5b505050565b60008054906101000a900473ffffffffffffffffffffffffffffffffffffffff1673ffffffffffffffffffffffffffffffffffffffff163373ffffffffffffffffffffffffffffffffffffffff1614610941576040517fcc731cf200000000000000000000000000000000000000000000000000000000815260040160405180910390fd5b600260008373ffffffffffffffffffffffffffffffffffffffff1673ffffffffffffffffffffffffffffffffffffffff16815260200190815260200160002060010160029054906101000a900460ff166109c7576040517f60f4985300000000000000000000000000000000000000000000000000000000815260040160405180910390fd5b6002808111156109da576109d96112d2565b5b811115610a1c576040517f08c379a0000000000000000000000000000000000000000000000000000000008152600401610a13906118e5565b60405180910390fd5b806002811115610a2f57610a2e6112d2565b5b600260008473ffffffffffffffffffffffffffffffffffffffff1673ffffffffffffffffffffffffffffffffffffffff16815260200190815260200160002060010160006101000a81548160ff02191690836002811115610a9357610a926112d2565b5b02179055505050565b6000806000600260008573ffffffffffffffffffffffffffffffffffffffff1673ffffffffffffffffffffffffffffffffffffffff16815260200190815260200160002060010160029054906101000a900460ff16610b27576040517f60f4985300000000000000000000000000000000000000000000000000000000815260040160405180910390fd5b6000600260008673ffffffffffffffffffffffffffffffffffffffff1673ffffffffffffffffffffffffffffffffffffffff168152602001908152602001600020604051806080016040529081600082015481526020016001820160009054906101000a900460ff166002811115610ba257610ba16112d2565b5b6002811115610bb457610bb36112d2565b5b81526020016001820160019054906101000a900460ff166002811115610bdd57610bdc6112d2565b5b6002811115610bef57610bee6112d2565b5b81526020016001820160029054906101000a900460ff1615151515815250509050806000015181602001518260400151935093509350509193909250565b60008054906101000a900473ffffffffffffffffffffffffffffffffffffffff1673ffffffffffffffffffffffffffffffffffffffff163373ffffffffffffffffffffffffffffffffffffffff1614610cb2576040517fcc731cf200000000000000000000000000000000000000000000000000000000815260040160405180910390fd5b600280811115610cc557610cc46112d2565b5b811115610d07576040517f08c379a0000000000000000000000000000000000000000000000000000000008152600401610cfe90611951565b60405180910390fd5b60008211610d4a576040517f08c379a0000000000000000000000000000000000000000000000000000000008152600401610d41906119bd565b60405180910390fd5b600260008473ffffffffffffffffffffffffffffffffffffffff1673ffffffffffffffffffffffffffffffffffffffff16815260200190815260200160002060010160029054906101000a900460ff1615610dd1576040517ff577854000000000000000000000000000000000000000000000000000000000815260040160405180910390fd5b604051806080016040528083815260200160006002811115610df657610df56112d2565b5b8152602001826002811115610e0e57610e0d6112d2565b5b6002811115610e2057610e1f6112d2565b5b815260200160011515815250600260008573ffffffffffffffffffffffffffffffffffffffff1673ffffffffffffffffffffffffffffffffffffffff1681526020019081526020016000206000820151816000015560208201518160010160006101000a81548160ff02191690836002811115610ea057610e9f6112d2565b5b021790555060408201518160010160016101000a81548160ff02191690836002811115610ed057610ecf6112d2565b5b021790555060608201518160010160026101000a81548160ff0219169083151502179055509050506001839080600181540180825580915050600190039060005260206000200160009091909190916101000a81548173ffffffffffffffffffffffffffffffffffffffff021916908373ffffffffffffffffffffffffffffffffffffffff160217905550505050565b60026020528060005260406000206000915090508060000154908060010160009054906101000a900460ff16908060010160019054906101000a900460ff16908060010160029054906101000a900460ff16905084565b565b60008054906101000a900473ffffffffffffffffffffffffffffffffffffffff1681565b60018181548110610fed57600080fd5b906000526020600020016000915054906101000a900473ffffffffffffffffffffffffffffffffffffffff1681565b6000600260008373ffffffffffffffffffffffffffffffffffffffff1673ffffffffffffffffffffffffffffffffffffffff16815260200190815260200160002060010160029054906101000a900460ff166110a4576040517f60f4985300000000000000000000000000000000000000000000000000000000815260040160405180910390fd5b600260008373ffffffffffffffffffffffffffffffffffffffff1673ffffffffffffffffffffffffffffffffffffffff168152602001908152602001600020600001549050919050565b600081519050919050565b600082825260208201905092915050565b6000819050602082019050919050565b600073ffffffffffffffffffffffffffffffffffffffff82169050919050565b60006111458261111a565b9050919050565b6111558161113a565b82525050565b6000611167838361114c565b60208301905092915050565b6000602082019050919050565b600061118b826110ee565b61119581856110f9565b93506111a08361110a565b8060005b838110156111d15781516111b8888261115b565b97506111c383611173565b9250506001810190506111a4565b5085935050505092915050565b600081519050919050565b600082825260208201905092915050565b6000819050602082019050919050565b6000819050919050565b61121d8161120a565b82525050565b600061122f8383611214565b60208301905092915050565b6000602082019050919050565b6000611253826111de565b61125d81856111e9565b9350611268836111fa565b8060005b838110156112995781516112808882611223565b975061128b8361123b565b92505060018101905061126c565b5085935050505092915050565b600081519050919050565b600082825260208201905092915050565b6000819050602082019050919050565b7f4e487b7100000000000000000000000000000000000000000000000000000000600052602160045260246000fd5b60038110611312576113116112d2565b5b50565b600081905061132382611301565b919050565b600061133382611315565b9050919050565b61134381611328565b82525050565b6000611355838361133a565b60208301905092915050565b6000602082019050919050565b6000611379826112a6565b61138381856112b1565b935061138e836112c2565b8060005b838110156113bf5781516113a68882611349565b97506113b183611361565b925050600181019050611392565b5085935050505092915050565b600081519050919050565b6000819050602082019050919050565b600381106113f8576113f76112d2565b5b50565b6000819050611409826113e7565b919050565b6000611419826113fb565b9050919050565b6114298161140e565b82525050565b600061143b8383611420565b60208301905092915050565b6000602082019050919050565b600061145f826113cc565b61146981856112b1565b9350611474836113d7565b8060005b838110156114a557815161148c888261142f565b975061149783611447565b925050600181019050611478565b5085935050505092915050565b600060808201905081810360008301526114cc8187611180565b905081810360208301526114e08186611248565b905081810360408301526114f4818561136e565b905081810360608301526115088184611454565b905095945050505050565b600080fd5b60006115238261111a565b9050919050565b61153381611518565b811461153e57600080fd5b50565b6000813590506115508161152a565b92915050565b61155f8161120a565b811461156a57600080fd5b50565b60008135905061157c81611556565b92915050565b6000806040838503121561159957611598611513565b5b60006115a785828601611541565b92505060206115b88582860161156d565b9150509250929050565b6115cb8161113a565b81146115d657600080fd5b50565b6000813590506115e8816115c2565b92915050565b6000806040838503121561160557611604611513565b5b6000611613858286016115d9565b92505060206116248582860161156d565b9150509250929050565b60006020828403121561164457611643611513565b5b6000611652848285016115d9565b91505092915050565b6116648161120a565b82525050565b61167381611328565b82525050565b6116828161140e565b82525050565b600060608201905061169d600083018661165b565b6116aa602083018561166a565b6116b76040830184611679565b949350505050565b6000806000606084860312156116d8576116d7611513565b5b60006116e6868287016115d9565b93505060206116f78682870161156d565b92505060406117088682870161156d565b9150509250925092565b60008115159050919050565b61172781611712565b82525050565b6000608082019050611742600083018761165b565b61174f602083018661166a565b61175c6040830185611679565b611769606083018461171e565b95945050505050565b61177b8161113a565b82525050565b60006020820190506117966000830184611772565b92915050565b6000602082840312156117b2576117b1611513565b5b60006117c08482850161156d565b91505092915050565b60006020820190506117de600083018461165b565b92915050565b7f4e487b7100000000000000000000000000000000000000000000000000000000600052604160045260246000fd5b7f4e487b7100000000000000000000000000000000000000000000000000000000600052603260045260246000fd5b600081905092915050565b50565b600061185d600083611842565b91506118688261184d565b600082019050919050565b600061187e82611850565b9150819050919050565b600082825260208201905092915050565b7f496e76616c696420737461747573000000000000000000000000000000000000600082015250565b60006118cf600e83611888565b91506118da82611899565b602082019050919050565b600060208201905081810360008301526118fe816118c2565b9050919050565b7f496e76616c696420526f6c650000000000000000000000000000000000000000600082015250565b600061193b600c83611888565b915061194682611905565b602082019050919050565b6000602082019050818103600083015261196a8161192e565b9050919050565b7f53616c617279206d7573742062652067726561746572207468616e207a65726f600082015250565b60006119a7602083611888565b91506119b282611971565b602082019050919050565b600060208201905081810360008301526119d68161199a565b905091905056fea26469706673582212208f6cd7c5d03ccd96aa66296402d025de14cc7952411f6972b1751a619c47f19964736f6c634300081e0033a2646970667358221220866ffd9fbe0a2f93f994ffc6be7dd2d283de15c42dadcfec2913c908d0ede15c64736f6c634300081e0033",
  "linkReferences": {},
  "deployedLinkReferences": {}
}