{
  "_format": "hh-sol-artifact-1",
  "contractName": "Todo",
  "sourceName": "contracts/Todo-Optimize.sol",
  "abi": [
    {
      "inputs": [
        {
          "internalType": "string",
          "name": "_title",
          "type": "string"
        },
        {
          "internalType": "string",
          "name": "_description",
          "type": "string"
        }
      ],
      "name": "createTask",
      "outputs": [],
      "stateMutability": "nonpayable",
      "type": "function"
    },
    {
      "inputs": [
        {
          "internalType": "uint256",
          "name": "_index",
          "type": "uint256"
        }
      ],
      "name": "deleteTask",
      "outputs": [],
      "stateMutability": "nonpayable",
      "type": "function"
    },
    {
      "inputs": [],
      "name": "getTasks",
      "outputs": [
        {
          "components": [
            {
              "internalType": "string",
              "name": "title",
              "type": "string"
            },
            {
              "internalType": "string",
              "name": "description",
              "type": "string"
            },
            {
              "internalType": "bool",
              "name": "completed",
              "type": "bool"
            }
          ],
          "internalType": "struct Todo.Task[]",
          "name": "",
          "type": "tuple[]"
        }
      ],
      "stateMutability": "view",
      "type": "function"
    },
    {
      "inputs": [
        {
          "internalType": "uint256",
          "name": "_index",
          "type": "uint256"
        }
      ],
      "name": "toggleTaskStatus",
      "outputs": [],
      "stateMutability": "nonpayable",
      "type": "function"
    },
    {
      "inputs": [
        {
          "internalType": "uint256",
          "name": "_index",
          "type": "uint256"
        },
        {
          "internalType": "string",
          "name": "_newTitle",
          "type": "string"
        },
        {
          "internalType": "string",
          "name": "_newDescription",
          "type": "string"
        }
      ],
      "name": "updateTask",
      "outputs": [],
      "stateMutability": "nonpayable",
      "type": "function"
    }
  ],
  "bytecode": "0x6080604052348015600f57600080fd5b506112e48061001f6000396000f3fe608060405234801561001057600080fd5b50600436106100575760003560e01c806304a87e381461005c578063292a45851461007a5780635357316e14610096578063560f3192146100b2578063c72ef41f146100ce575b600080fd5b6100646100ea565b6040516100719190610ac3565b60405180910390f35b610094600480360381019061008f9190610c2e565b6102c4565b005b6100b060048036038101906100ab9190610cdc565b61039b565b005b6100cc60048036038101906100c79190610cdc565b610509565b005b6100e860048036038101906100e39190610d09565b610793565b005b60606000803373ffffffffffffffffffffffffffffffffffffffff1673ffffffffffffffffffffffffffffffffffffffff168152602001908152602001600020805480602002602001604051908101604052809291908181526020016000905b828210156102bb578382906000526020600020906003020160405180606001604052908160008201805461017d90610dc3565b80601f01602080910402602001604051908101604052809291908181526020018280546101a990610dc3565b80156101f65780601f106101cb576101008083540402835291602001916101f6565b820191906000526020600020905b8154815290600101906020018083116101d957829003601f168201915b5050505050815260200160018201805461020f90610dc3565b80601f016020809104026020016040519081016040528092919081815260200182805461023b90610dc3565b80156102885780601f1061025d57610100808354040283529160200191610288565b820191906000526020600020905b81548152906001019060200180831161026b57829003601f168201915b505050505081526020016002820160009054906101000a900460ff1615151515815250508152602001906001019061014a565b50505050905090565b6000803373ffffffffffffffffffffffffffffffffffffffff1673ffffffffffffffffffffffffffffffffffffffff1681526020019081526020016000206040518060600160405280848152602001838152602001600015158152509080600181540180825580915050600190039060005260206000209060030201600090919091909150600082015181600001908161035e9190610fa0565b5060208201518160010190816103749190610fa0565b5060408201518160020160006101000a81548160ff02191690831515021790555050505050565b6000803373ffffffffffffffffffffffffffffffffffffffff1673ffffffffffffffffffffffffffffffffffffffff16815260200190815260200160002080549050811061041e576040517f08c379a0000000000000000000000000000000000000000000000000000000008152600401610415906110cf565b60405180910390fd5b6000803373ffffffffffffffffffffffffffffffffffffffff1673ffffffffffffffffffffffffffffffffffffffff168152602001908152602001600020818154811061046e5761046d6110ef565b5b906000526020600020906003020160020160009054906101000a900460ff16156000803373ffffffffffffffffffffffffffffffffffffffff1673ffffffffffffffffffffffffffffffffffffffff16815260200190815260200160002082815481106104de576104dd6110ef565b5b906000526020600020906003020160020160006101000a81548160ff02191690831515021790555050565b6000803373ffffffffffffffffffffffffffffffffffffffff1673ffffffffffffffffffffffffffffffffffffffff16815260200190815260200160002080549050811061058c576040517f08c379a0000000000000000000000000000000000000000000000000000000008152600401610583906110cf565b60405180910390fd5b600060016000803373ffffffffffffffffffffffffffffffffffffffff1673ffffffffffffffffffffffffffffffffffffffff168152602001908152602001600020805490506105dc919061114d565b90506000803373ffffffffffffffffffffffffffffffffffffffff1673ffffffffffffffffffffffffffffffffffffffff168152602001908152602001600020818154811061062e5761062d6110ef565b5b90600052602060002090600302016000803373ffffffffffffffffffffffffffffffffffffffff1673ffffffffffffffffffffffffffffffffffffffff168152602001908152602001600020838154811061068c5761068b6110ef565b5b9060005260206000209060030201600082018160000190816106ae9190611197565b50600182018160010190816106c39190611197565b506002820160009054906101000a900460ff168160020160006101000a81548160ff0219169083151502179055509050506000803373ffffffffffffffffffffffffffffffffffffffff1673ffffffffffffffffffffffffffffffffffffffff1681526020019081526020016000208054806107425761074161127f565b5b60019003818190600052602060002090600302016000808201600061076791906108a2565b60018201600061077791906108a2565b6002820160006101000a81549060ff0219169055505090555050565b6000803373ffffffffffffffffffffffffffffffffffffffff1673ffffffffffffffffffffffffffffffffffffffff168152602001908152602001600020805490508310610816576040517f08c379a000000000000000000000000000000000000000000000000000000000815260040161080d906110cf565b60405180910390fd5b60008060003373ffffffffffffffffffffffffffffffffffffffff1673ffffffffffffffffffffffffffffffffffffffff1681526020019081526020016000208481548110610868576108676110ef565b5b90600052602060002090600302019050828160000190816108899190610fa0565b508181600101908161089b9190610fa0565b5050505050565b5080546108ae90610dc3565b6000825580601f106108c057506108df565b601f0160209004906000526020600020908101906108de91906108e2565b5b50565b5b808211156108fb5760008160009055506001016108e3565b5090565b600081519050919050565b600082825260208201905092915050565b6000819050602082019050919050565b600081519050919050565b600082825260208201905092915050565b60005b8381101561096557808201518184015260208101905061094a565b60008484015250505050565b6000601f19601f8301169050919050565b600061098d8261092b565b6109978185610936565b93506109a7818560208601610947565b6109b081610971565b840191505092915050565b60008115159050919050565b6109d0816109bb565b82525050565b600060608301600083015184820360008601526109f38282610982565b91505060208301518482036020860152610a0d8282610982565b9150506040830151610a2260408601826109c7565b508091505092915050565b6000610a3983836109d6565b905092915050565b6000602082019050919050565b6000610a59826108ff565b610a63818561090a565b935083602082028501610a758561091b565b8060005b85811015610ab15784840389528151610a928582610a2d565b9450610a9d83610a41565b925060208a01995050600181019050610a79565b50829750879550505050505092915050565b60006020820190508181036000830152610add8184610a4e565b905092915050565b6000604051905090565b600080fd5b600080fd5b600080fd5b600080fd5b7f4e487b7100000000000000000000000000000000000000000000000000000000600052604160045260246000fd5b610b3b82610971565b810181811067ffffffffffffffff82111715610b5a57610b59610b03565b5b80604052505050565b6000610b6d610ae5565b9050610b798282610b32565b919050565b600067ffffffffffffffff821115610b9957610b98610b03565b5b610ba282610971565b9050602081019050919050565b82818337600083830152505050565b6000610bd1610bcc84610b7e565b610b63565b905082815260208101848484011115610bed57610bec610afe565b5b610bf8848285610baf565b509392505050565b600082601f830112610c1557610c14610af9565b5b8135610c25848260208601610bbe565b91505092915050565b60008060408385031215610c4557610c44610aef565b5b600083013567ffffffffffffffff811115610c6357610c62610af4565b5b610c6f85828601610c00565b925050602083013567ffffffffffffffff811115610c9057610c8f610af4565b5b610c9c85828601610c00565b9150509250929050565b6000819050919050565b610cb981610ca6565b8114610cc457600080fd5b50565b600081359050610cd681610cb0565b92915050565b600060208284031215610cf257610cf1610aef565b5b6000610d0084828501610cc7565b91505092915050565b600080600060608486031215610d2257610d21610aef565b5b6000610d3086828701610cc7565b935050602084013567ffffffffffffffff811115610d5157610d50610af4565b5b610d5d86828701610c00565b925050604084013567ffffffffffffffff811115610d7e57610d7d610af4565b5b610d8a86828701610c00565b9150509250925092565b7f4e487b7100000000000000000000000000000000000000000000000000000000600052602260045260246000fd5b60006002820490506001821680610ddb57607f821691505b602082108103610dee57610ded610d94565b5b50919050565b60008190508160005260206000209050919050565b60006020601f8301049050919050565b600082821b905092915050565b600060088302610e567fffffffffffffffffffffffffffffffffffffffffffffffffffffffffffffffff82610e19565b610e608683610e19565b95508019841693508086168417925050509392505050565b6000819050919050565b6000610e9d610e98610e9384610ca6565b610e78565b610ca6565b9050919050565b6000819050919050565b610eb783610e82565b610ecb610ec382610ea4565b848454610e26565b825550505050565b600090565b610ee0610ed3565b610eeb818484610eae565b505050565b5b81811015610f0f57610f04600082610ed8565b600181019050610ef1565b5050565b601f821115610f5457610f2581610df4565b610f2e84610e09565b81016020851015610f3d578190505b610f51610f4985610e09565b830182610ef0565b50505b505050565b600082821c905092915050565b6000610f7760001984600802610f59565b1980831691505092915050565b6000610f908383610f66565b9150826002028217905092915050565b610fa98261092b565b67ffffffffffffffff811115610fc257610fc1610b03565b5b610fcc8254610dc3565b610fd7828285610f13565b600060209050601f83116001811461100a5760008415610ff8578287015190505b6110028582610f84565b86555061106a565b601f19841661101886610df4565b60005b828110156110405784890151825560018201915060208501945060208101905061101b565b8683101561105d5784890151611059601f891682610f66565b8355505b6001600288020188555050505b505050505050565b600082825260208201905092915050565b7f496e76616c696420496e64657800000000000000000000000000000000000000600082015250565b60006110b9600d83611072565b91506110c482611083565b602082019050919050565b600060208201905081810360008301526110e8816110ac565b9050919050565b7f4e487b7100000000000000000000000000000000000000000000000000000000600052603260045260246000fd5b7f4e487b7100000000000000000000000000000000000000000000000000000000600052601160045260246000fd5b600061115882610ca6565b915061116383610ca6565b925082820390508181111561117b5761117a61111e565b5b92915050565b60008154905061119081610dc3565b9050919050565b8181036111a557505061127d565b6111ae82611181565b67ffffffffffffffff8111156111c7576111c6610b03565b5b6111d18254610dc3565b6111dc828285610f13565b6000601f83116001811461120b57600084156111f9578287015490505b6112038582610f84565b865550611276565b601f19841661121987610df4565b965061122486610df4565b60005b8281101561124c57848901548255600182019150600185019450602081019050611227565b868310156112695784890154611265601f891682610f66565b8355505b6001600288020188555050505b5050505050505b565b7f4e487b7100000000000000000000000000000000000000000000000000000000600052603160045260246000fdfea26469706673582212203c168ce7cce25b553f3b7d069ea73fbcf64434af50679a270fbd82899af64a2364736f6c634300081e0033",
  "linkReferences": {},
  "deployedLinkReferences": {}
}