{
  "_format": "hh-sol-artifact-1",
  "contractName": "Storage",
  "sourceName": "contracts/Storage.sol",
  "abi": [
    {
      "inputs": [],
      "name": "getMessage",
      "outputs": [
        {
          "internalType": "string",
          "name": "",
          "type": "string"
        }
      ],
      "stateMutability": "view",
      "type": "function"
    },
    {
      "inputs": [],
      "name": "getNumber",
      "outputs": [
        {
          "internalType": "uint256",
          "name": "",
          "type": "uint256"
        }
      ],
      "stateMutability": "view",
      "type": "function"
    },
    {
      "inputs": [
        {
          "internalType": "string",
          "name": "_message",
          "type": "string"
        }
      ],
      "name": "setMessage",
      "outputs": [],
      "stateMutability": "nonpayable",
      "type": "function"
    },
    {
      "inputs": [
        {
          "internalType": "uint256",
          "name": "_number",
          "type": "uint256"
        }
      ],
      "name": "setNumber",
      "outputs": [],
      "stateMutability": "nonpayable",
      "type": "function"
    },
    {
      "inputs": [],
      "name": "storedMessage",
      "outputs": [
        {
          "internalType": "string",
          "name": "",
          "type": "string"
        }
      ],
      "stateMutability": "view",
      "type": "function"
    },
    {
      "inputs": [],
      "name": "storedNumber",
      "outputs": [
        {
          "internalType": "uint256",
          "name": "",
          "type": "uint256"
        }
      ],
      "stateMutability": "view",
      "type": "function"
    }
  ],
  "bytecode": "0x6080604052348015600f57600080fd5b506108488061001f6000396000f3fe608060405234801561001057600080fd5b50600436106100625760003560e01c806309ce9ccb14610067578063368b8772146100855780633fb5c1cb146100a1578063b2f6cbbe146100bd578063ce6d41de146100db578063f2c9ecd8146100f9575b600080fd5b61006f610117565b60405161007c919061027c565b60405180910390f35b61009f600480360381019061009a91906103f1565b61011d565b005b6100bb60048036038101906100b69190610466565b610130565b005b6100c561013a565b6040516100d29190610512565b60405180910390f35b6100e36101c8565b6040516100f09190610512565b60405180910390f35b61010161025a565b60405161010e919061027c565b60405180910390f35b60005481565b806001908161012c9190610740565b5050565b8060008190555050565b6001805461014790610563565b80601f016020809104026020016040519081016040528092919081815260200182805461017390610563565b80156101c05780601f10610195576101008083540402835291602001916101c0565b820191906000526020600020905b8154815290600101906020018083116101a357829003601f168201915b505050505081565b6060600180546101d790610563565b80601f016020809104026020016040519081016040528092919081815260200182805461020390610563565b80156102505780601f1061022557610100808354040283529160200191610250565b820191906000526020600020905b81548152906001019060200180831161023357829003601f168201915b5050505050905090565b60008054905090565b6000819050919050565b61027681610263565b82525050565b6000602082019050610291600083018461026d565b92915050565b6000604051905090565b600080fd5b600080fd5b600080fd5b600080fd5b6000601f19601f8301169050919050565b7f4e487b7100000000000000000000000000000000000000000000000000000000600052604160045260246000fd5b6102fe826102b5565b810181811067ffffffffffffffff8211171561031d5761031c6102c6565b5b80604052505050565b6000610330610297565b905061033c82826102f5565b919050565b600067ffffffffffffffff82111561035c5761035b6102c6565b5b610365826102b5565b9050602081019050919050565b82818337600083830152505050565b600061039461038f84610341565b610326565b9050828152602081018484840111156103b0576103af6102b0565b5b6103bb848285610372565b509392505050565b600082601f8301126103d8576103d76102ab565b5b81356103e8848260208601610381565b91505092915050565b600060208284031215610407576104066102a1565b5b600082013567ffffffffffffffff811115610425576104246102a6565b5b610431848285016103c3565b91505092915050565b61044381610263565b811461044e57600080fd5b50565b6000813590506104608161043a565b92915050565b60006020828403121561047c5761047b6102a1565b5b600061048a84828501610451565b91505092915050565b600081519050919050565b600082825260208201905092915050565b60005b838110156104cd5780820151818401526020810190506104b2565b60008484015250505050565b60006104e482610493565b6104ee818561049e565b93506104fe8185602086016104af565b610507816102b5565b840191505092915050565b6000602082019050818103600083015261052c81846104d9565b905092915050565b7f4e487b7100000000000000000000000000000000000000000000000000000000600052602260045260246000fd5b6000600282049050600182168061057b57607f821691505b60208210810361058e5761058d610534565b5b50919050565b60008190508160005260206000209050919050565b60006020601f8301049050919050565b600082821b905092915050565b6000600883026105f67fffffffffffffffffffffffffffffffffffffffffffffffffffffffffffffffff826105b9565b61060086836105b9565b95508019841693508086168417925050509392505050565b6000819050919050565b600061063d61063861063384610263565b610618565b610263565b9050919050565b6000819050919050565b61065783610622565b61066b61066382610644565b8484546105c6565b825550505050565b600090565b610680610673565b61068b81848461064e565b505050565b5b818110156106af576106a4600082610678565b600181019050610691565b5050565b601f8211156106f4576106c581610594565b6106ce846105a9565b810160208510156106dd578190505b6106f16106e9856105a9565b830182610690565b50505b505050565b600082821c905092915050565b6000610717600019846008026106f9565b1980831691505092915050565b60006107308383610706565b9150826002028217905092915050565b61074982610493565b67ffffffffffffffff811115610762576107616102c6565b5b61076c8254610563565b6107778282856106b3565b600060209050601f8311600181146107aa5760008415610798578287015190505b6107a28582610724565b86555061080a565b601f1984166107b886610594565b60005b828110156107e0578489015182556001820191506020850194506020810190506107bb565b868310156107fd57848901516107f9601f891682610706565b8355505b6001600288020188555050505b50505050505056fea2646970667358221220d314daa70f971672b70596c3e43027649414dd1f08242fc6123eac48a1ae734964736f6c634300081e0033",
  "linkReferences": {},
  "deployedLinkReferences": {}
}