{
  "_format": "hh-sol-artifact-1",
  "contractName": "SchoolManagementSystem",
  "sourceName": "contracts/SMS-Optimize.sol",
  "abi": [
    {
      "inputs": [],
      "name": "AlreadyRegistered",
      "type": "error"
    },
    {
      "inputs": [],
      "name": "NotRegistered",
      "type": "error"
    },
    {
      "inputs": [],
      "name": "deleteStudent",
      "outputs": [],
      "stateMutability": "nonpayable",
      "type": "function"
    },
    {
      "inputs": [],
      "name": "getStatus",
      "outputs": [
        {
          "internalType": "enum SchoolManagementSystem.Status",
          "name": "",
          "type": "uint8"
        }
      ],
      "stateMutability": "view",
      "type": "function"
    },
    {
      "inputs": [],
      "name": "getStudent",
      "outputs": [
        {
          "components": [
            {
              "internalType": "uint256",
              "name": "id",
              "type": "uint256"
            },
            {
              "internalType": "string",
              "name": "name",
              "type": "string"
            },
            {
              "internalType": "uint256",
              "name": "age",
              "type": "uint256"
            },
            {
              "internalType": "string",
              "name": "gender",
              "type": "string"
            },
            {
              "internalType": "enum SchoolManagementSystem.Status",
              "name": "status",
              "type": "uint8"
            }
          ],
          "internalType": "struct SchoolManagementSystem.Student",
          "name": "",
          "type": "tuple"
        }
      ],
      "stateMutability": "view",
      "type": "function"
    },
    {
      "inputs": [],
      "name": "nextId",
      "outputs": [
        {
          "internalType": "uint256",
          "name": "",
          "type": "uint256"
        }
      ],
      "stateMutability": "view",
      "type": "function"
    },
    {
      "inputs": [
        {
          "internalType": "string",
          "name": "_name",
          "type": "string"
        },
        {
          "internalType": "uint256",
          "name": "_age",
          "type": "uint256"
        },
        {
          "internalType": "string",
          "name": "_gender",
          "type": "string"
        }
      ],
      "name": "registerStudent",
      "outputs": [],
      "stateMutability": "nonpayable",
      "type": "function"
    },
    {
      "inputs": [
        {
          "internalType": "enum SchoolManagementSystem.Status",
          "name": "_newStatus",
          "type": "uint8"
        }
      ],
      "name": "updateStatus",
      "outputs": [],
      "stateMutability": "nonpayable",
      "type": "function"
    },
    {
      "inputs": [
        {
          "internalType": "string",
          "name": "_newName",
          "type": "string"
        },
        {
          "internalType": "uint256",
          "name": "_newAge",
          "type": "uint256"
        }
      ],
      "name": "updateStudent",
      "outputs": [],
      "stateMutability": "nonpayable",
      "type": "function"
    }
  ],
  "bytecode": "0x6080604052348015600f57600080fd5b5061126a8061001f6000396000f3fe608060405234801561001057600080fd5b506004361061007d5760003560e01c806368216c371161005b57806368216c37146100da5780637cce1c03146100f6578063b439548d14610112578063ec02547f146101305761007d565b80630b3af7f9146100825780634e69d5601461009e57806361b8ce8c146100bc575b600080fd5b61009c60048036038101906100979190610a57565b61013a565b005b6100a6610229565b6040516100b39190610afb565b60405180910390f35b6100c4610302565b6040516100d19190610b2f565b60405180910390f35b6100f460048036038101906100ef9190610cbc565b610308565b005b610110600480360381019061010b9190610d18565b6103ed565b005b61011a6105d2565b6040516101279190610ebd565b60405180910390f35b61013861081e565b005b600160003373ffffffffffffffffffffffffffffffffffffffff1673ffffffffffffffffffffffffffffffffffffffff16815260200190815260200160002060009054906101000a900460ff166101bd576040517faba4733900000000000000000000000000000000000000000000000000000000815260040160405180910390fd5b806000803373ffffffffffffffffffffffffffffffffffffffff1673ffffffffffffffffffffffffffffffffffffffff16815260200190815260200160002060040160006101000a81548160ff0219169083600281111561022157610220610a84565b5b021790555050565b6000600160003373ffffffffffffffffffffffffffffffffffffffff1673ffffffffffffffffffffffffffffffffffffffff16815260200190815260200160002060009054906101000a900460ff166102ae576040517faba4733900000000000000000000000000000000000000000000000000000000815260040160405180910390fd5b6000803373ffffffffffffffffffffffffffffffffffffffff1673ffffffffffffffffffffffffffffffffffffffff16815260200190815260200160002060040160009054906101000a900460ff16905090565b60025481565b600160003373ffffffffffffffffffffffffffffffffffffffff1673ffffffffffffffffffffffffffffffffffffffff16815260200190815260200160002060009054906101000a900460ff1661038b576040517faba4733900000000000000000000000000000000000000000000000000000000815260040160405180910390fd5b60008060003373ffffffffffffffffffffffffffffffffffffffff1673ffffffffffffffffffffffffffffffffffffffff1681526020019081526020016000209050828160010190816103de91906110eb565b50818160020181905550505050565b600160003373ffffffffffffffffffffffffffffffffffffffff1673ffffffffffffffffffffffffffffffffffffffff16815260200190815260200160002060009054906101000a900460ff1615610471576040517f3a81d6fc00000000000000000000000000000000000000000000000000000000815260040160405180910390fd5b6040518060a001604052806002548152602001848152602001838152602001828152602001600060028111156104aa576104a9610a84565b5b8152506000803373ffffffffffffffffffffffffffffffffffffffff1673ffffffffffffffffffffffffffffffffffffffff16815260200190815260200160002060008201518160000155602082015181600101908161050a91906110eb565b5060408201518160020155606082015181600301908161052a91906110eb565b5060808201518160040160006101000a81548160ff0219169083600281111561055657610555610a84565b5b021790555090505060018060003373ffffffffffffffffffffffffffffffffffffffff1673ffffffffffffffffffffffffffffffffffffffff16815260200190815260200160002060006101000a81548160ff021916908315150217905550600260008154809291906105c8906111ec565b9190505550505050565b6105da610980565b600160003373ffffffffffffffffffffffffffffffffffffffff1673ffffffffffffffffffffffffffffffffffffffff16815260200190815260200160002060009054906101000a900460ff1661065d576040517faba4733900000000000000000000000000000000000000000000000000000000815260040160405180910390fd5b6000803373ffffffffffffffffffffffffffffffffffffffff1673ffffffffffffffffffffffffffffffffffffffff1681526020019081526020016000206040518060a0016040529081600082015481526020016001820180546106c090610f0e565b80601f01602080910402602001604051908101604052809291908181526020018280546106ec90610f0e565b80156107395780601f1061070e57610100808354040283529160200191610739565b820191906000526020600020905b81548152906001019060200180831161071c57829003601f168201915b505050505081526020016002820154815260200160038201805461075c90610f0e565b80601f016020809104026020016040519081016040528092919081815260200182805461078890610f0e565b80156107d55780601f106107aa576101008083540402835291602001916107d5565b820191906000526020600020905b8154815290600101906020018083116107b857829003601f168201915b505050505081526020016004820160009054906101000a900460ff16600281111561080357610802610a84565b5b600281111561081557610814610a84565b5b81525050905090565b600160003373ffffffffffffffffffffffffffffffffffffffff1673ffffffffffffffffffffffffffffffffffffffff16815260200190815260200160002060009054906101000a900460ff166108a1576040517faba4733900000000000000000000000000000000000000000000000000000000815260040160405180910390fd5b6000803373ffffffffffffffffffffffffffffffffffffffff1673ffffffffffffffffffffffffffffffffffffffff1681526020019081526020016000206000808201600090556001820160006108f891906109c1565b600282016000905560038201600061091091906109c1565b6004820160006101000a81549060ff021916905550506000600160003373ffffffffffffffffffffffffffffffffffffffff1673ffffffffffffffffffffffffffffffffffffffff16815260200190815260200160002060006101000a81548160ff021916908315150217905550565b6040518060a0016040528060008152602001606081526020016000815260200160608152602001600060028111156109bb576109ba610a84565b5b81525090565b5080546109cd90610f0e565b6000825580601f106109df57506109fe565b601f0160209004906000526020600020908101906109fd9190610a01565b5b50565b5b80821115610a1a576000816000905550600101610a02565b5090565b6000604051905090565b600080fd5b600080fd5b60038110610a3f57600080fd5b50565b600081359050610a5181610a32565b92915050565b600060208284031215610a6d57610a6c610a28565b5b6000610a7b84828501610a42565b91505092915050565b7f4e487b7100000000000000000000000000000000000000000000000000000000600052602160045260246000fd5b60038110610ac457610ac3610a84565b5b50565b6000819050610ad582610ab3565b919050565b6000610ae582610ac7565b9050919050565b610af581610ada565b82525050565b6000602082019050610b106000830184610aec565b92915050565b6000819050919050565b610b2981610b16565b82525050565b6000602082019050610b446000830184610b20565b92915050565b600080fd5b600080fd5b6000601f19601f8301169050919050565b7f4e487b7100000000000000000000000000000000000000000000000000000000600052604160045260246000fd5b610b9d82610b54565b810181811067ffffffffffffffff82111715610bbc57610bbb610b65565b5b80604052505050565b6000610bcf610a1e565b9050610bdb8282610b94565b919050565b600067ffffffffffffffff821115610bfb57610bfa610b65565b5b610c0482610b54565b9050602081019050919050565b82818337600083830152505050565b6000610c33610c2e84610be0565b610bc5565b905082815260208101848484011115610c4f57610c4e610b4f565b5b610c5a848285610c11565b509392505050565b600082601f830112610c7757610c76610b4a565b5b8135610c87848260208601610c20565b91505092915050565b610c9981610b16565b8114610ca457600080fd5b50565b600081359050610cb681610c90565b92915050565b60008060408385031215610cd357610cd2610a28565b5b600083013567ffffffffffffffff811115610cf157610cf0610a2d565b5b610cfd85828601610c62565b9250506020610d0e85828601610ca7565b9150509250929050565b600080600060608486031215610d3157610d30610a28565b5b600084013567ffffffffffffffff811115610d4f57610d4e610a2d565b5b610d5b86828701610c62565b9350506020610d6c86828701610ca7565b925050604084013567ffffffffffffffff811115610d8d57610d8c610a2d565b5b610d9986828701610c62565b9150509250925092565b610dac81610b16565b82525050565b600081519050919050565b600082825260208201905092915050565b60005b83811015610dec578082015181840152602081019050610dd1565b60008484015250505050565b6000610e0382610db2565b610e0d8185610dbd565b9350610e1d818560208601610dce565b610e2681610b54565b840191505092915050565b610e3a81610ada565b82525050565b600060a083016000830151610e586000860182610da3565b5060208301518482036020860152610e708282610df8565b9150506040830151610e856040860182610da3565b5060608301518482036060860152610e9d8282610df8565b9150506080830151610eb26080860182610e31565b508091505092915050565b60006020820190508181036000830152610ed78184610e40565b905092915050565b7f4e487b7100000000000000000000000000000000000000000000000000000000600052602260045260246000fd5b60006002820490506001821680610f2657607f821691505b602082108103610f3957610f38610edf565b5b50919050565b60008190508160005260206000209050919050565b60006020601f8301049050919050565b600082821b905092915050565b600060088302610fa17fffffffffffffffffffffffffffffffffffffffffffffffffffffffffffffffff82610f64565b610fab8683610f64565b95508019841693508086168417925050509392505050565b6000819050919050565b6000610fe8610fe3610fde84610b16565b610fc3565b610b16565b9050919050565b6000819050919050565b61100283610fcd565b61101661100e82610fef565b848454610f71565b825550505050565b600090565b61102b61101e565b611036818484610ff9565b505050565b5b8181101561105a5761104f600082611023565b60018101905061103c565b5050565b601f82111561109f5761107081610f3f565b61107984610f54565b81016020851015611088578190505b61109c61109485610f54565b83018261103b565b50505b505050565b600082821c905092915050565b60006110c2600019846008026110a4565b1980831691505092915050565b60006110db83836110b1565b9150826002028217905092915050565b6110f482610db2565b67ffffffffffffffff81111561110d5761110c610b65565b5b6111178254610f0e565b61112282828561105e565b600060209050601f8311600181146111555760008415611143578287015190505b61114d85826110cf565b8655506111b5565b601f19841661116386610f3f565b60005b8281101561118b57848901518255600182019150602085019450602081019050611166565b868310156111a857848901516111a4601f8916826110b1565b8355505b6001600288020188555050505b505050505050565b7f4e487b7100000000000000000000000000000000000000000000000000000000600052601160045260246000fd5b60006111f782610b16565b91507fffffffffffffffffffffffffffffffffffffffffffffffffffffffffffffffff8203611229576112286111bd565b5b60018201905091905056fea26469706673582212200d04c28945a005fe5b42afe5cffb5c80672d9f15dd6c75968351f815494bbf6d64736f6c634300081e0033",
  "linkReferences": {},
  "deployedLinkReferences": {}
}