{
  "_format": "hh-sol-artifact-1",
  "contractName": "garageAccess",
  "sourceName": "contracts/AccessControl.sol",
  "abi": [
    {
      "inputs": [],
      "name": "ONLY_FOUNDER",
      "type": "error"
    },
    {
      "inputs": [
        {
          "internalType": "address",
          "name": "_address",
          "type": "address"
        },
        {
          "internalType": "string",
          "name": "_name",
          "type": "string"
        },
        {
          "internalType": "enum garageAccess.Role",
          "name": "_role",
          "type": "uint8"
        },
        {
          "internalType": "bool",
          "name": "_isEmployed",
          "type": "bool"
        }
      ],
      "name": "addUpdateEmployee",
      "outputs": [],
      "stateMutability": "nonpayable",
      "type": "function"
    },
    {
      "inputs": [
        {
          "internalType": "address",
          "name": "",
          "type": "address"
        }
      ],
      "name": "employeeData",
      "outputs": [
        {
          "internalType": "string",
          "name": "name",
          "type": "string"
        },
        {
          "internalType": "enum garageAccess.Role",
          "name": "role",
          "type": "uint8"
        },
        {
          "internalType": "bool",
          "name": "isEmployed",
          "type": "bool"
        }
      ],
      "stateMutability": "view",
      "type": "function"
    },
    {
      "inputs": [
        {
          "internalType": "uint256",
          "name": "",
          "type": "uint256"
        }
      ],
      "name": "employeeList",
      "outputs": [
        {
          "internalType": "address",
          "name": "",
          "type": "address"
        }
      ],
      "stateMutability": "view",
      "type": "function"
    },
    {
      "inputs": [
        {
          "internalType": "address",
          "name": "_addressOf",
          "type": "address"
        }
      ],
      "name": "getEmployee",
      "outputs": [
        {
          "components": [
            {
              "internalType": "string",
              "name": "name",
              "type": "string"
            },
            {
              "internalType": "enum garageAccess.Role",
              "name": "role",
              "type": "uint8"
            },
            {
              "internalType": "bool",
              "name": "isEmployed",
              "type": "bool"
            }
          ],
          "internalType": "struct garageAccess.Employee",
          "name": "",
          "type": "tuple"
        }
      ],
      "stateMutability": "view",
      "type": "function"
    },
    {
      "inputs": [],
      "name": "getEntireEmployees",
      "outputs": [
        {
          "internalType": "address[]",
          "name": "",
          "type": "address[]"
        }
      ],
      "stateMutability": "view",
      "type": "function"
    },
    {
      "inputs": [
        {
          "internalType": "address",
          "name": "_address",
          "type": "address"
        }
      ],
      "name": "hasAccess",
      "outputs": [
        {
          "internalType": "bool",
          "name": "",
          "type": "bool"
        }
      ],
      "stateMutability": "view",
      "type": "function"
    }
  ],
  "bytecode": "0x6080604052348015600f57600080fd5b506112878061001f6000396000f3fe608060405234801561001057600080fd5b50600436106100625760003560e01c806332648e09146100675780635975e6bd1461009757806361c89af4146100b5578063634e8b92146100e757806395a078e814610103578063c3b2d07a14610133575b600080fd5b610081600480360381019061007c919061094c565b610163565b60405161008e9190610aeb565b60405180910390f35b61009f6102a4565b6040516100ac9190610bcb565b60405180910390f35b6100cf60048036038101906100ca919061094c565b610332565b6040516100de93929190610c55565b60405180910390f35b61010160048036038101906100fc9190610e19565b6103fe565b005b61011d6004803603810190610118919061094c565b610670565b60405161012a9190610e9c565b60405180910390f35b61014d60048036038101906101489190610eed565b610866565b60405161015a9190610f29565b60405180910390f35b61016b6108a5565b600160008373ffffffffffffffffffffffffffffffffffffffff1673ffffffffffffffffffffffffffffffffffffffff1681526020019081526020016000206040518060600160405290816000820180546101c590610f73565b80601f01602080910402602001604051908101604052809291908181526020018280546101f190610f73565b801561023e5780601f106102135761010080835404028352916020019161023e565b820191906000526020600020905b81548152906001019060200180831161022157829003601f168201915b505050505081526020016001820160009054906101000a900460ff16600581111561026c5761026b610a09565b5b600581111561027e5761027d610a09565b5b81526020016001820160019054906101000a900460ff1615151515815250509050919050565b6060600280548060200260200160405190810160405280929190818152602001828054801561032857602002820191906000526020600020905b8160009054906101000a900473ffffffffffffffffffffffffffffffffffffffff1673ffffffffffffffffffffffffffffffffffffffff16815260200190600101908083116102de575b5050505050905090565b600160205280600052604060002060009150905080600001805461035590610f73565b80601f016020809104026020016040519081016040528092919081815260200182805461038190610f73565b80156103ce5780601f106103a3576101008083540402835291602001916103ce565b820191906000526020600020905b8154815290600101906020018083116103b157829003601f168201915b5050505050908060010160009054906101000a900460ff16908060010160019054906101000a900460ff16905083565b3360008054906101000a900473ffffffffffffffffffffffffffffffffffffffff1673ffffffffffffffffffffffffffffffffffffffff163373ffffffffffffffffffffffffffffffffffffffff1614610484576040517f8906efb400000000000000000000000000000000000000000000000000000000815260040160405180910390fd5b600060405180606001604052808681526020018560058111156104aa576104a9610a09565b5b8152602001841515815250905080600160008873ffffffffffffffffffffffffffffffffffffffff1673ffffffffffffffffffffffffffffffffffffffff168152602001908152602001600020600082015181600001908161050c9190611150565b5060208201518160010160006101000a81548160ff0219169083600581111561053857610537610a09565b5b021790555060408201518160010160016101000a81548160ff0219169083151502179055509050506000806105cb576002879080600181540180825580915050600190039060005260206000200160009091909190916101000a81548173ffffffffffffffffffffffffffffffffffffffff021916908373ffffffffffffffffffffffffffffffffffffffff1602179055505b60005b600280549050811015610665578773ffffffffffffffffffffffffffffffffffffffff166002828154811061060657610605611222565b5b9060005260206000200160009054906101000a900473ffffffffffffffffffffffffffffffffffffffff1673ffffffffffffffffffffffffffffffffffffffff16036106585760019150505050610669565b80806001019150506105ce565b5050505b5050505050565b600080600160008473ffffffffffffffffffffffffffffffffffffffff1673ffffffffffffffffffffffffffffffffffffffff1681526020019081526020016000206040518060600160405290816000820180546106cd90610f73565b80601f01602080910402602001604051908101604052809291908181526020018280546106f990610f73565b80156107465780601f1061071b57610100808354040283529160200191610746565b820191906000526020600020905b81548152906001019060200180831161072957829003601f168201915b505050505081526020016001820160009054906101000a900460ff16600581111561077457610773610a09565b5b600581111561078657610785610a09565b5b81526020016001820160019054906101000a900460ff161515151581525050905080604001516107ba576000915050610861565b600060058111156107ce576107cd610a09565b5b816020015160058111156107e5576107e4610a09565b5b1480610819575060016005811115610800576107ff610a09565b5b8160200151600581111561081757610816610a09565b5b145b8061084c57506002600581111561083357610832610a09565b5b8160200151600581111561084a57610849610a09565b5b145b1561085b576001915050610861565b60009150505b919050565b6002818154811061087657600080fd5b906000526020600020016000915054906101000a900473ffffffffffffffffffffffffffffffffffffffff1681565b604051806060016040528060608152602001600060058111156108cb576108ca610a09565b5b81526020016000151581525090565b6000604051905090565b600080fd5b600080fd5b600073ffffffffffffffffffffffffffffffffffffffff82169050919050565b6000610919826108ee565b9050919050565b6109298161090e565b811461093457600080fd5b50565b60008135905061094681610920565b92915050565b600060208284031215610962576109616108e4565b5b600061097084828501610937565b91505092915050565b600081519050919050565b600082825260208201905092915050565b60005b838110156109b3578082015181840152602081019050610998565b60008484015250505050565b6000601f19601f8301169050919050565b60006109db82610979565b6109e58185610984565b93506109f5818560208601610995565b6109fe816109bf565b840191505092915050565b7f4e487b7100000000000000000000000000000000000000000000000000000000600052602160045260246000fd5b60068110610a4957610a48610a09565b5b50565b6000819050610a5a82610a38565b919050565b6000610a6a82610a4c565b9050919050565b610a7a81610a5f565b82525050565b60008115159050919050565b610a9581610a80565b82525050565b60006060830160008301518482036000860152610ab882826109d0565b9150506020830151610acd6020860182610a71565b506040830151610ae06040860182610a8c565b508091505092915050565b60006020820190508181036000830152610b058184610a9b565b905092915050565b600081519050919050565b600082825260208201905092915050565b6000819050602082019050919050565b610b428161090e565b82525050565b6000610b548383610b39565b60208301905092915050565b6000602082019050919050565b6000610b7882610b0d565b610b828185610b18565b9350610b8d83610b29565b8060005b83811015610bbe578151610ba58882610b48565b9750610bb083610b60565b925050600181019050610b91565b5085935050505092915050565b60006020820190508181036000830152610be58184610b6d565b905092915050565b600082825260208201905092915050565b6000610c0982610979565b610c138185610bed565b9350610c23818560208601610995565b610c2c816109bf565b840191505092915050565b610c4081610a5f565b82525050565b610c4f81610a80565b82525050565b60006060820190508181036000830152610c6f8186610bfe565b9050610c7e6020830185610c37565b610c8b6040830184610c46565b949350505050565b600080fd5b600080fd5b7f4e487b7100000000000000000000000000000000000000000000000000000000600052604160045260246000fd5b610cd5826109bf565b810181811067ffffffffffffffff82111715610cf457610cf3610c9d565b5b80604052505050565b6000610d076108da565b9050610d138282610ccc565b919050565b600067ffffffffffffffff821115610d3357610d32610c9d565b5b610d3c826109bf565b9050602081019050919050565b82818337600083830152505050565b6000610d6b610d6684610d18565b610cfd565b905082815260208101848484011115610d8757610d86610c98565b5b610d92848285610d49565b509392505050565b600082601f830112610daf57610dae610c93565b5b8135610dbf848260208601610d58565b91505092915050565b60068110610dd557600080fd5b50565b600081359050610de781610dc8565b92915050565b610df681610a80565b8114610e0157600080fd5b50565b600081359050610e1381610ded565b92915050565b60008060008060808587031215610e3357610e326108e4565b5b6000610e4187828801610937565b945050602085013567ffffffffffffffff811115610e6257610e616108e9565b5b610e6e87828801610d9a565b9350506040610e7f87828801610dd8565b9250506060610e9087828801610e04565b91505092959194509250565b6000602082019050610eb16000830184610c46565b92915050565b6000819050919050565b610eca81610eb7565b8114610ed557600080fd5b50565b600081359050610ee781610ec1565b92915050565b600060208284031215610f0357610f026108e4565b5b6000610f1184828501610ed8565b91505092915050565b610f238161090e565b82525050565b6000602082019050610f3e6000830184610f1a565b92915050565b7f4e487b7100000000000000000000000000000000000000000000000000000000600052602260045260246000fd5b60006002820490506001821680610f8b57607f821691505b602082108103610f9e57610f9d610f44565b5b50919050565b60008190508160005260206000209050919050565b60006020601f8301049050919050565b600082821b905092915050565b6000600883026110067fffffffffffffffffffffffffffffffffffffffffffffffffffffffffffffffff82610fc9565b6110108683610fc9565b95508019841693508086168417925050509392505050565b6000819050919050565b600061104d61104861104384610eb7565b611028565b610eb7565b9050919050565b6000819050919050565b61106783611032565b61107b61107382611054565b848454610fd6565b825550505050565b600090565b611090611083565b61109b81848461105e565b505050565b5b818110156110bf576110b4600082611088565b6001810190506110a1565b5050565b601f821115611104576110d581610fa4565b6110de84610fb9565b810160208510156110ed578190505b6111016110f985610fb9565b8301826110a0565b50505b505050565b600082821c905092915050565b600061112760001984600802611109565b1980831691505092915050565b60006111408383611116565b9150826002028217905092915050565b61115982610979565b67ffffffffffffffff81111561117257611171610c9d565b5b61117c8254610f73565b6111878282856110c3565b600060209050601f8311600181146111ba57600084156111a8578287015190505b6111b28582611134565b86555061121a565b601f1984166111c886610fa4565b60005b828110156111f0578489015182556001820191506020850194506020810190506111cb565b8683101561120d5784890151611209601f891682611116565b8355505b6001600288020188555050505b505050505050565b7f4e487b7100000000000000000000000000000000000000000000000000000000600052603260045260246000fdfea26469706673582212202f1c24718359909b82d64dbdc930948060d51ca223b7f98becee9c46c670dbba64736f6c634300081d0033",
  "linkReferences": {},
  "deployedLinkReferences": {}
}